:020000040000FA
:107F6A00FF0E926E000E936EC168C5EF3FF0FDB131
:107F7A00FDA3FDB7FD87FDB7FD85FDA5FD951200A3
:107F8A0080CFFEF1010EE06E006B0081FD6BFEB743
:107F9A00FD8100B1FD8300B3FD85BCEC3FF0FDA57A
:107FAA000093FDB50083FD6BFEB5FD8100B3FD8333
:107FBA0000B5FD85BCEC3FF0FDA50095FDB500853B
:107FCA00FD6BFEB9FD8100B1FD8300B7FD85BCECF8
:107FDA003FF0FDA50097FDB5008700A5FF9300B50A
:107FEA00FF8300A7FF9B00B7FF8BFFC181FFC5EF8F
:067FFA003FF0B5EF3FF07F
:00000001FF